{
  "_format": "hh-sol-artifact-1",
  "contractName": "Coffee",
  "sourceName": "contracts/Coffee.sol",
  "abi": [
    {
      "inputs": [],
      "stateMutability": "nonpayable",
      "type": "constructor"
    },
    {
      "inputs": [
        {
          "internalType": "string",
          "name": "name",
          "type": "string"
        },
        {
          "internalType": "string",
          "name": "_message",
          "type": "string"
        }
      ],
      "name": "buyCoffee",
      "outputs": [],
      "stateMutability": "payable",
      "type": "function"
    },
    {
      "inputs": [],
      "name": "getMemos",
      "outputs": [
        {
          "components": [
            {
              "internalType": "address",
              "name": "sender",
              "type": "address"
            },
            {
              "internalType": "string",
              "name": "name",
              "type": "string"
            },
            {
              "internalType": "string",
              "name": "message",
              "type": "string"
            },
            {
              "internalType": "uint256",
              "name": "timestamp",
              "type": "uint256"
            }
          ],
          "internalType": "struct Coffee.Message[]",
          "name": "",
          "type": "tuple[]"
        }
      ],
      "stateMutability": "view",
      "type": "function"
    },
    {
      "inputs": [],
      "name": "withdrawAll",
      "outputs": [],
      "stateMutability": "nonpayable",
      "type": "function"
    }
  ],
  "bytecode": "0x60a060405234801561001057600080fd5b503373ffffffffffffffffffffffffffffffffffffffff1660808173ffffffffffffffffffffffffffffffffffffffff1681525050608051610c7d6100676000396000818161026801526102df0152610c7d6000f3fe6080604052600436106100345760003560e01c8063204206e114610039578063853828b614610055578063865c51721461006c575b600080fd5b610053600480360381019061004e9190610598565b610097565b005b34801561006157600080fd5b5061006a61024f565b005b34801561007857600080fd5b50610081610346565b60405161008e919061082f565b60405180910390f35b600034116100da576040517f08c379a00000000000000000000000000000000000000000000000000000000081526004016100d1906108ae565b60405180910390fd5b600060405180608001604052803373ffffffffffffffffffffffffffffffffffffffff16815260200186868080601f016020809104026020016040519081016040528093929190818152602001838380828437600081840152601f19601f82011690508083019250505050505050815260200184848080601f016020809104026020016040519081016040528093929190818152602001838380828437600081840152601f19601f820116905080830192505050505050508152602001428152509050600081908060018154018082558091505060019003906000526020600020906004020160009091909190915060008201518160000160006101000a81548173ffffffffffffffffffffffffffffffffffffffff021916908373ffffffffffffffffffffffffffffffffffffffff16021790555060208201518160010190816102259190610b09565b50604082015181600201908161023b9190610b09565b506060820151816003015550505050505050565b3373ffffffffffffffffffffffffffffffffffffffff167f000000000000000000000000000000000000000000000000000000000000000073ffffffffffffffffffffffffffffffffffffffff16146102dd576040517f08c379a00000000000000000000000000000000000000000000000000000000081526004016102d490610c27565b60405180910390fd5b7f000000000000000000000000000000000000000000000000000000000000000073ffffffffffffffffffffffffffffffffffffffff166108fc479081150290604051600060405180830381858888f19350505050158015610343573d6000803e3d6000fd5b50565b60606000805480602002602001604051908101604052809291908181526020016000905b8282101561052057838290600052602060002090600402016040518060800160405290816000820160009054906101000a900473ffffffffffffffffffffffffffffffffffffffff1673ffffffffffffffffffffffffffffffffffffffff1673ffffffffffffffffffffffffffffffffffffffff1681526020016001820180546103f39061092c565b80601f016020809104026020016040519081016040528092919081815260200182805461041f9061092c565b801561046c5780601f106104415761010080835404028352916020019161046c565b820191906000526020600020905b81548152906001019060200180831161044f57829003601f168201915b505050505081526020016002820180546104859061092c565b80601f01602080910402602001604051908101604052809291908181526020018280546104b19061092c565b80156104fe5780601f106104d3576101008083540402835291602001916104fe565b820191906000526020600020905b8154815290600101906020018083116104e157829003601f168201915b505050505081526020016003820154815250508152602001906001019061036a565b50505050905090565b600080fd5b600080fd5b600080fd5b600080fd5b600080fd5b60008083601f84011261055857610557610533565b5b8235905067ffffffffffffffff81111561057557610574610538565b5b6020830191508360018202830111156105915761059061053d565b5b9250929050565b600080600080604085870312156105b2576105b1610529565b5b600085013567ffffffffffffffff8111156105d0576105cf61052e565b5b6105dc87828801610542565b9450945050602085013567ffffffffffffffff8111156105ff576105fe61052e565b5b61060b87828801610542565b925092505092959194509250565b600081519050919050565b600082825260208201905092915050565b6000819050602082019050919050565b600073ffffffffffffffffffffffffffffffffffffffff82169050919050565b600061067082610645565b9050919050565b61068081610665565b82525050565b600081519050919050565b600082825260208201905092915050565b60005b838110156106c05780820151818401526020810190506106a5565b60008484015250505050565b6000601f19601f8301169050919050565b60006106e882610686565b6106f28185610691565b93506107028185602086016106a2565b61070b816106cc565b840191505092915050565b6000819050919050565b61072981610716565b82525050565b60006080830160008301516107476000860182610677565b506020830151848203602086015261075f82826106dd565b9150506040830151848203604086015261077982826106dd565b915050606083015161078e6060860182610720565b508091505092915050565b60006107a5838361072f565b905092915050565b6000602082019050919050565b60006107c582610619565b6107cf8185610624565b9350836020820285016107e185610635565b8060005b8581101561081d57848403895281516107fe8582610799565b9450610809836107ad565b925060208a019950506001810190506107e5565b50829750879550505050505092915050565b6000602082019050818103600083015261084981846107ba565b905092915050565b600082825260208201905092915050565b7f596f75206e65656420746f2073656e6420736f6d652045544800000000000000600082015250565b6000610898601983610851565b91506108a382610862565b602082019050919050565b600060208201905081810360008301526108c78161088b565b9050919050565b7f4e487b7100000000000000000000000000000000000000000000000000000000600052604160045260246000fd5b7f4e487b7100000000000000000000000000000000000000000000000000000000600052602260045260246000fd5b6000600282049050600182168061094457607f821691505b602082108103610957576109566108fd565b5b50919050565b60008190508160005260206000209050919050565b60006020601f8301049050919050565b600082821b905092915050565b6000600883026109bf7fffffffffffffffffffffffffffffffffffffffffffffffffffffffffffffffff82610982565b6109c98683610982565b95508019841693508086168417925050509392505050565b6000819050919050565b6000610a06610a016109fc84610716565b6109e1565b610716565b9050919050565b6000819050919050565b610a20836109eb565b610a34610a2c82610a0d565b84845461098f565b825550505050565b600090565b610a49610a3c565b610a54818484610a17565b505050565b5b81811015610a7857610a6d600082610a41565b600181019050610a5a565b5050565b601f821115610abd57610a8e8161095d565b610a9784610972565b81016020851015610aa6578190505b610aba610ab285610972565b830182610a59565b50505b505050565b600082821c905092915050565b6000610ae060001984600802610ac2565b1980831691505092915050565b6000610af98383610acf565b9150826002028217905092915050565b610b1282610686565b67ffffffffffffffff811115610b2b57610b2a6108ce565b5b610b35825461092c565b610b40828285610a7c565b600060209050601f831160018114610b735760008415610b61578287015190505b610b6b8582610aed565b865550610bd3565b601f198416610b818661095d565b60005b82811015610ba957848901518255600182019150602085019450602081019050610b84565b86831015610bc65784890151610bc2601f891682610acf565b8355505b6001600288020188555050505b505050505050565b7f596f7520617265206e6f7420746865206f776e65720000000000000000000000600082015250565b6000610c11601583610851565b9150610c1c82610bdb565b602082019050919050565b60006020820190508181036000830152610c4081610c04565b905091905056fea26469706673582212204d37047c1ce664a8aff297aae485674c04a38ac4e9d4cb8651038d68f9148ab264736f6c63430008130033",
  "linkReferences": {},
  "deployedLinkReferences": {}
}